:020000040000FA
:060000000A128A110E280D
:10000800FE00030EFB000408FC000A08FD000A12AB
:100018008A119D2B0A128A11112883133C308400FF
:100028004D300A128A1162240A128A1183010A12B7
:100038008A11202B83120313B000AB1B2428262817
:10004800013027280030AD002D08B200320803190E
:100058002E282F283528AA09AB09AA0A0319AB0AA2
:1000680035282908AD002D08A30030080A128A1186
:1000780000240A128A11103083120313B3002730A8
:10008800B4000530AD002D08B100792883120313A0
:100098003408A1003308A0002B08A3002A08A200F6
:1000A8000A128A11A4210A128A1183120313200842
:1000B8002104031D6028612893280130B1026528B6
:1000C80093280A30A0000030A1003408A3003308A8
:1000D800A2000A128A11A4210A128A118312031398
:1000E8002108B4002008B30079283408803AFF00BA
:1000F80080307F02031D82280130330203188528CF
:1001080086284A289328932820300A128A116123C6
:100118000A128A11013083120313AC029328831246
:10012800031331083207AD00AE01AE0D2E08803A38
:10013800AF0080302F02031DA3282C082D020318BE
:10014800A628A728B1280230831203132C0203180B
:10015800AE28AF288828B128B128831203133208A3
:100168000319B728B828BF282D300A128A1161232D
:100178000A128A11BF28831203133408A100330816
:10018800A0002B08A3002A08A2000A128A11A421A1
:100198000A128A11831203132008303E0A128A11A8
:1001A80061230A128A11831203133408A100330849
:1001B800A0002B08A3002A08A2000A128A111722FD
:1001C8000A128A11831203132108AB002008AA001F
:1001D8000A30A0000030A1003408A3003308A200B0
:1001E8000A128A11A4210A128A1183120313210800
:1001F800B4002008B3003408803AFF0080307F0242
:10020800031D08290130330203180B290C29BF28C4
:100218000D29080083120313A20008112208A00068
:1002280004300310A00CFF3E031D15292008A1006F
:1002380004300310A10DFF3E031D1D2908080F39C6
:10024800210488008811220303192B292C2933291A
:1002580002302206031D312932293E293329033071
:1002680083120313A1009730A000A00B3929A10B1A
:10027800392946290C3083120313A000A00B422908
:1002880000004629831203138815F0302205A000C8
:1002980020302006031D51295229732908112208EC
:1002A800A00004300310A00CFF3E031D56292008AF
:1002B800A10004300310A10DFF3E031D5E290808AC
:1002C8000F392104880088110C3083120313A00011
:1002D800A00B6C29000083120313881573290811D9
:1002E8002208A00004300310A00DFF3E031D77294B
:1002F80008080F392004880088112203031985296A
:1003080086298D2902302206031D8B298C299829DC
:100318008D29033083120313A1009730A000A00B8E
:100328009329A10B9329A0290C3083120313A00051
:10033800A00B9C290000A02983120313881508002C
:1003480083120313A601A11FAA29AB29B329A00967
:10035800A109A00A0319A10AA601A60AB329A31F85
:10036800B629B729C129A209A309A20A0319A30A10
:100378000130A4002408A606C129A701A801200865
:1003880021040319C829C929062AA501A50AD829BB
:1003980001300310A00DA10DFF3E031DCD29013032
:1003A800A4002408A507D829A11FDB29DC29CC290A
:1003B800DE29DE2901300310A70DA80DFF3E031D1D
:1003C800DF2921082302031DEB2920082202031C30
:1003D800EE29EF29F7292008A2022108031CA3030C
:1003E800A3022714F72901300310A10CA00CFF3E2B
:1003F800031DF8290130A502031D032A042ADE295A
:10040800062A062A260803190A2A0B2A112AA709E6
:10041800A809A70A0319A80A112A2808A100270869
:10042800A000162A080083120313A601A31F1D2A81
:100438001E2A262AA209A309A20A0319A30AA601A9
:10044800A60A262AA11F292A2A2A302AA009A10990
:10045800A00A0319A10A302A200821040319352A01
:10046800362A6B2AA501A50A452A01300310A00DDA
:10047800A10DFF3E031D3A2A0130A4002408A50758
:10048800452AA11F482A492A392A4B2A4B2A2108DA
:100498002302031D512A20082202031C542A552A2C
:1004A8005C2A2008A2022108031CA303A3025C2AD9
:1004B80001300310A10CA00CFF3E031D5D2A013082
:1004C800A502031D682A692A4B2A6B2A6B2A26086B
:1004D80003196F2A702A762AA209A309A20A031906
:1004E800A30A762A2308A1002208A0007B2A080074
:1004F800F7007708F100F2017108F8007208F900B6
:1005080008300310F80DF90DFF3E031D852A700809
:10051800F100F2017108F8047208F9048312031358
:1005280017080F39053A031D9A2A9B2AA82A170883
:10053800F03904389700460884007808831380004F
:10054800840A79088000DA2A1708F03905389700F4
:100558004608023E8400780883138000840A7908DC
:1005680080004608023E84000008F100840A000862
:10057800F200460884000008F300840A0008F4002A
:10058800F309F409F30A0319F40A71087307F5006B
:1005980072080318720A7407F6004608043E8400BD
:1005A80075088000840A76088000DA2A080064301A
:1005B80083120313A0000030A1000A128A11CF236E
:1005C8000A128A1183160313081188110812881257
:1005D80008138813643083120313A0000030A100AD
:1005E8000A128A11CF230A128A118312031388155B
:1005F80028300A128A110E210A128A110C300A12A6
:100608008A110E210A128A1101300A128A110E214A
:100618000A128A1102300A128A110E210A128A114C
:10062800643083120313A0000030A1000A128A115B
:10063800CF230A128A11080083120313B601B701E7
:10064800B801B901BA01BB018316031307100A12D6
:100658008A116A240A128A110A128A11DB220A12E2
:100668008A110A128A1157240A128A110A128A1147
:1006780037240A128A1147300A128A1127240A12CB
:100688008A11462B0A128A11EB230A128A11831245
:100698000313A9014C08AB004B08AA000330B500AE
:1006A8003508AC0000300A128A111E200A128A117D
:1006B800462B462B0A128A110E2883120313A20016
:1006C80008152208A00004300310A00CFF3E031DEB
:1006D800682B2008A10004300310A10DFF3E031D64
:1006E800702B08080F392104880088110C308312F8
:1006F8000313A000A00B7E2B0000831203138815A0
:1007080008152208A00004300310A00DFF3E031DA9
:10071800882B08080F392004880088110C308312B0
:100728000313A000A00B962B000083120313881557
:1007380008000B1DA02BA12BA82B0B110A128A1144
:1007480015240A128A11A82B831203138C1CAD2BB3
:10075800AE2BB52B8C100A128A1147240A128A1163
:10076800B52B831203130C1DBA2BBB2BC62B1508F4
:10077800FA007A08F00016080A128A117C220A1276
:100788008A11C62B7D088A007C0884007B0E8300B2
:10079800FE0E7E0E0900E12BC73083120313A20060
:1007A800D52BA20BD42BD82B013083120313A00214
:1007B8000030031CA103A102E12B831203132008BC
:1007C8002104031DE82BE92BD02BEA2B0800831208
:1007D80003138814023083120313A000A00BF22B1A
:1007E8000000831203138810023083120313A00041
:1007F800A00BFC2B0000080083120313A50025089A
:10080800A40006300310A40DFF3E031D062C230888
:1008180024077F39803E0A128A110E210A128A1192
:1008280008000630831203138100400841040319AD
:100838001E2C1F2C262C0130C0020030031CC103C3
:10084800C102262C080083120313A1008B139014F5
:1008580090119012101390130B172108A000200874
:10086800C6008B1708008B13831603138111010828
:10087800F839013881008112063083120313810090
:100888008B128B170800831203133C083D040319CD
:100898004E2C4F2C562C0130BC020030031CBD03DB
:1008A800BD02562C08008316031307150710831280
:1008B8000313C201C3010710071108006400800177
:1008C800840A0406031900340406632C83160313F0
:0808D800081488100711080044
:04400E00D4E0FFFFFC
:00000001FF
