:020000040000FA
:060000000A128A110C280F
:10000800FE00030EF0000A08F1000A128A11E62B1E
:100018000A128A110F28FA01FB0183120313B30194
:10002800B401B501B601B701B801B901BA0183013C
:100038000A128A110D2983120313AB00A61B252867
:100048002728013028280030A8002808AD002D08EE
:1000580003192F2830283628A509A609A50A031947
:10006800A60A36282408A8002808F5002B080A1232
:100078008A113D240A128A11103083120313AE002C
:100088002730AF000530A8002808AC007A28831272
:1000980003132F08F3002E08F2002608F5002508A0
:1000A800F4000A128A1123220A128A1172087304B0
:1000B800031D5F2860289428013083120313AC02C3
:1000C800662894280A30F2000030F3002F08F50063
:1000D8002E08F4000A128A1123220A128A117308C0
:1000E80083120313AF007208AE007A282F08803AF3
:1000F800FF0080307F02031D832801302E02031881
:10010800862887284B289428942820300A128A1198
:10011800B0230A128A11013083120313A70294280C
:10012800831203132C082D07A800A901A90D29087B
:10013800803AAA0080302A02031DA4282708280232
:100148000318A728A828B22802308312031327020D
:100158000318AF28B0288928B228B22883120313BD
:100168002D080319B828B928C0282D300A128A1179
:10017800B0230A128A11C028831203132F08F30030
:100188002E08F2002608F5002508F4000A128A1144
:1001980023220A128A117208303E0A128A11B023E9
:1001A8000A128A11831203132F08F3002E08F20093
:1001B8002608F5002508F4000A128A1196220A1268
:1001C8008A11730883120313A6007208A5000A3067
:1001D800F2000030F3002F08F5002E08F4000A1290
:1001E8008A1123220A128A11730883120313AF009B
:1001F8007208AE002F08803AFF0080307F02031D8E
:10020800072901302E0203180A290B29C0280C29B6
:10021800080083120313B101B2010A128A113A23AA
:100228000A128A110A128A118F240A128A110A12D2
:100238008A1162240A128A11E830F2000330F300AE
:100248000A128A119A240A128A1183120313A4012A
:100258003208A6003108A5000230B0003008A70017
:1002680001300A128A111F200A128A11F801F80AAD
:10027800013083120313B0003008F90000300A126D
:100288008A1179230A128A1149290A128A11A42487
:100298000A128A1172087304031D532954298829E4
:1002A800E830F2000330F3000A128A119A240A1285
:1002B8008A113C30F2000030F3000130831203133E
:1002C800B1070318B20A0030B2073208F500310846
:1002D800F4000A128A11F9220A128A117308831289
:1002E8000313B2007208B100A4013208A600310855
:1002F800A5000230B0003008A70001300A128A11A8
:100308001F200A128A1188293C30831203133106F0
:100318003204031D9029912949290710492949299F
:1003280049290A128A110C28F400831203130811B0
:100338007408F20004300310F20CFF3E031D9F29DD
:100348007208F30004300310F30DFF3E031DA729C4
:1003580008080F3973048800881174030319B52934
:10036800B629BD2902307406031DBB29BC29C7293B
:10037800BD290330F3009730F200F20BC129F30BCB
:10038800C129C629CC290D30F200F20BC929CC2984
:10039800831203138815F0307405F20020307206BA
:1003A800031DD729D829F62908117408F20004304A
:1003B8000310F20CFF3E031DDC297208F300043021
:1003C8000310F30DFF3E031DE42908080F397304D9
:1003D800880088110D30F200F20BF0298312031304
:1003E8008815F62908117408F20004300310F20D7C
:1003F800FF3E031DFA2908080F3972048800881186
:1004080074030319082A092A102A02307406031DE6
:100418000E2A0F2A1A2A102A0330F3009730F20006
:10042800F20B142AF30B142A192A1F2A0D30F20092
:10043800F20B1C2A1F2A8312031388150800831243
:100448000313A101F31F292A2A2A322AF209F309E0
:10045800F20A0319F30AA101A10A322AF51F352A63
:10046800362A402AF409F509F40A0319F50A013075
:10047800F6007608A106402AA201A30172087304B7
:100488000319472A482A852AA001A00A572A0130B9
:100498000310F20DF30DFF3E031D4C2A0130F60048
:1004A8007608A007572AF31F5A2A5B2A4B2A5D2A87
:1004B8005D2A01300310A20DA30DFF3E031D5E2A25
:1004C80073087502031D6A2A72087402031C6D2AD8
:1004D8006E2A762A7208F4027308031CF503F502E3
:1004E8002214762A01300310F30CF20CFF3E031D90
:1004F800772A0130A002031D822A832A5D2A852AD1
:10050800852A21080319892A8A2A902AA209A30977
:10051800A20A0319A30A902A2308F3002208F2006A
:10052800952A0800F801F51F9A2A9B2AA32AF4099C
:10053800F509F40A0319F50AF801F80AA32AF31FC2
:10054800A62AA72AAD2AF209F309F20A0319F30A1F
:10055800AD2A720873040319B22AB32AE82AF701EC
:10056800F70AC22A01300310F20DF30DFF3E031DF6
:10057800B72A0130F6007608F707C22AF31FC52A02
:10058800C62AB62AC82AC82A73087502031DCE2AA5
:1005980072087402031CD12AD22AD92A7208F402DA
:1005A8007308031CF503F502D92A01300310F30C74
:1005B800F20CFF3E031DDA2A0130F702031DE52A7B
:1005C800E62AC82AE82AE82A78080319EC2AED2A34
:1005D800F32AF409F509F40A0319F50AF32A750848
:1005E800F3007408F200F82A08007208730403196B
:1005F800FE2AFF2A342BF701F70A0E2B01300310CD
:10060800F20DF30DFF3E031D032B0130F6007608B3
:10061800F7070E2BF31F112B122B022B142B142B65
:1006280073087502031D1A2B72087402031C1D2B14
:100638001E2B252B7208F4027308031CF503F50220
:10064800252B01300310F30CF20CFF3E031D262B63
:100658000130F702031D312B322B142B342B342B92
:100668007508F3007408F200392B08006430F200B2
:100678000030F3000A128A1112240A128A11831612
:10068800031308118811081288120813881364309C
:10069800F2000030F3000A128A1112240A128A1199
:1006A80083120313881528300A128A1198210A1216
:1006B8008A110C300A128A1198210A128A11013003
:1006C8000A128A1198210A128A1102300A128A1112
:1006D80098210A128A116430F2000030F3000A12DD
:1006E8008A1112240A128A11080083120313A20025
:1006F8007808A0002008A1007808A0002008F500CC
:1007080022080A128A113D240A128A11A22B79089A
:1007180084000A128A1182240A128A110A128A1182
:10072800B0230A128A11013083120313A000200893
:10073800F9070130A0002008A107A22B790884003E
:100748000A128A1182240A128A11003A031DAD2B5B
:10075800AE2B8B2BAF2B0800F40083120313081564
:100768007408F20004300310F20CFF3E031DB72B8F
:100778007208F30004300310F30DFF3E031DBF2B76
:1007880008080F397304880088110D30F200F20B45
:10079800CB2B83120313881508157408F200043054
:1007A8000310F20DFF3E031DD42B08080F39720405
:1007B800880088110D30F200F20BE02B831203132E
:1007C800881508000B1DE92BEA2BF12B0B110A12D7
:1007D8008A1150240A128A11F12B831203130C1C5C
:1007E800F62BF72BFE2B0C100A128A1129240A1259
:1007F8008A11FE2B831203138C1C032C042C0B2C44
:100808008C100A128A1172240A128A110B2C710890
:100818008A00700E8300FE0E7E0E0900212CC73060
:10082800F400162CF40B152C192C1A2C0130F2029A
:100838000030031CF303F302212C72087304031D18
:10084800262C272C132C282C0800FC308312031389
:100858008F0018308E00350836040319342C352CD7
:100868003C2C0130B5020030031CB603B6023C2C08
:100878000800F7007708F60006300310F60DFF3E73
:10088800031D412C750876077F39803E0A128A11AC
:1008980098210A128A110800063083120313810076
:1008A8007A087B040319592C5A2C612C0130FA025E
:1008B8000030031CFB03FB02612C08008B1383161A
:1008C800031381110108F8390138810081120630BB
:1008D8008312031381008B128B17080083120313F2
:1008E800330834040319792C7A2C812C0130B30293
:1008F8000030031CB403B402812C080004308A00C1
:100908000408840A82070034503472346F346E3419
:1009180074346F34003483160313071507108312D9
:100928000313B701B8010710071108000630831236
:10093800031381007308FB007208FA008B16080085
:0C0948007B08F3007A08F200A92C0800DC
:04400E00D4E0FFFFFC
:00000001FF
