:020000040000FA
:060000000A128A110E280D
:10000800FE00030EFB000408FC000A08FD000A12AB
:100018008A11972B0A128A1111288313D730FD00F1
:100028000430FE006C30FF00A03084000A128A11F0
:10003800D8240A128A115030FD000530FE000C3019
:10004800FF003F3084000A128A11D8240A128A114C
:10005800D001D101D201D301D401D501D601D701F4
:10006800D801D901DA01DB01DC0183010A128A1106
:100078002E2983120313B0008B13AB1B4428462888
:10008800013047280030AD002D08B20032080319AE
:100098004E284F285528AA09AB09AA0A0319AB0A02
:1000A80055282908AD002D08A30030080A128A1126
:1000B800BF240A128A11103083120313B3002730A9
:1000C800B4000530AD002D08B10099288312031340
:1000D8003408A1003308A0002B08A3002A08A200B6
:1000E8000A128A1160220A128A1183120313200845
:1000F8002104031D80288128B3280130B1028528F6
:10010800B3280A30A0000030A1003408A300330847
:10011800A2000A128A1160220A128A11831203139A
:100128002108B4002008B30099283408803AFF0059
:1001380080307F02031DA228013033020318A5284E
:10014800A6286A28B328B32820300A128A11302436
:100158000A128A11013083120313AC02B3288312E6
:10016800031331083207AD00AE01AE0D2E08803AF8
:10017800AF0080302F02031DC3282C082D0203185E
:10018800C628C728D1280230831203132C0203186B
:10019800CE28CF28A828D128D128831203133208C3
:1001A8000319D728D828DF282D300A128A113024BD
:1001B8000A128A11DF28831203133408A1003308B6
:1001C800A0002B08A3002A08A2000A128A116022A4
:1001D8000A128A11831203132008303E0A128A1168
:1001E80030240A128A11831203133408A100330839
:1001F800A0002B08A3002A08A2000A128A11D32201
:100208000A128A11831203132108AB002008AA00DE
:100218000A30A0000030A1003408A3003308A2006F
:100228000A128A1160220A128A1183120313210802
:10023800B4002008B3003408803AFF0080307F0201
:10024800031D28290130330203182B292C29DF2804
:100258008B1708008316031307100A128A114B25FF
:100268000A128A110A128A11EB230A128A110A1237
:100278008A11E7240A128A11831603178801831644
:100288000313051047290A128A1143250A128A11F5
:1002980083120313B500B6013508B9003608BA0051
:1002A8000A128A113A250A128A1183120313B50019
:1002B800B6013508BB003608BC000A128A112D2584
:1002C8000A128A11831203132108BE002008BD00F8
:1002D800A9010130AA000030AB000330B500350891
:1002E800AC0001300A128A113D200A128A11053029
:1002F80083120313B5003508A9000130AA000030A5
:10030800AB000330B6003608AC0001300A128A117F
:100318003D200A128A110A3083120313B5003508EA
:10032800A9000130AA000030AB000330B60036083F
:10033800AC0001300A128A113D200A128A110D30D0
:1003480083120313B5003508A9000F08B600B701DA
:100358003608AA003708AB000330B8003808AC00EC
:1003680000300A128A113D200A128A11E8308312DD
:100378000313A0000330A1000A128A11A3240A1251
:100388008A11472947290A128A110E288312031352
:10039800A20008112208A00004300310A00CFF3EA0
:1003A800031DD1292008A10004300310A10DFF3E30
:1003B800031DD92908080F39210488008811220350
:1003C8000319E729E829EF2902302206031DED2940
:1003D800EE29FA29EF29033083120313A10097307D
:1003E800A000A00BF529A10BF529022A0C308312D5
:1003F8000313A000A00BFE290000022A8312031396
:100408008815F0302205A00020302006031D0D2A93
:100418000E2A2F2A08112208A00004300310A00C6D
:10042800FF3E031D122A2008A10004300310A10D6D
:10043800FF3E031D1A2A08080F3921048800881175
:100448000C3083120313A000A00B282A000083128B
:10045800031388152F2A08112208A000043003105E
:10046800A00DFF3E031D332A08080F392004880019
:10047800881122030319412A422A492A02302206F6
:10048800031D472A482A542A492A03308312031392
:10049800A1009730A000A00B4F2AA10B4F2A5C2A7D
:1004A8000C3083120313A000A00B582A00005C2A0A
:1004B800831203138815080083120313A601A11FD2
:1004C800662A672A6F2AA009A109A00A0319A10AA6
:1004D800A601A60A6F2AA31F722A732A7D2AA209D7
:1004E800A309A20A0319A30A0130A4002408A60636
:1004F8007D2AA701A801200821040319842A852A36
:10050800C22AA501A50A942A01300310A00DA10D45
:10051800FF3E031D892A0130A4002408A507942A58
:10052800A11F972A982A882A9A2A9A2A0130031002
:10053800A70DA80DFF3E031D9B2A21082302031DBA
:10054800A72A20082202031CAA2AAB2AB32A2008B9
:10055800A2022108031CA303A3022714B32A013013
:100568000310A10CA00CFF3E031DB42A0130A50204
:10057800031DBF2AC02A9A2AC22AC22A260803199A
:10058800C62AC72ACD2AA709A809A70A0319A80AAB
:10059800CD2A2808A1002708A000D22A0800831223
:1005A8000313A601A31FD92ADA2AE22AA209A3095A
:1005B800A20A0319A30AA601A60AE22AA11FE52A8C
:1005C800E62AEC2AA009A109A00A0319A10AEC2A23
:1005D800200821040319F12AF22A272BA501A50ACC
:1005E800012B01300310A00DA10DFF3E031DF62ABB
:1005F8000130A4002408A507012BA11F042B052BFB
:10060800F52A072B072B21082302031D0D2B200891
:100618002202031C102B112B182B2008A2022108E0
:10062800031CA303A302182B01300310A10CA00C78
:10063800FF3E031D192B0130A502031D242B252B7A
:10064800072B272B272B260803192B2B2C2B322B78
:10065800A209A309A20A0319A30A322B2308A1009D
:100668002208A000372B0800F7007708F100F201F4
:100678007108F8007208F90008300310F80DF90D38
:10068800FF3E031D412B7008F100F2017108F800CC
:100698007208F9008312031317080F39053A031D6E
:1006A800562B572B642B5808840078088313800036
:1006B800840A790880001708F03904389700962BC7
:1006C8005808023E8400780883138000840A790859
:1006D80080005808023E84000008F100840A0008DF
:1006E800F200580884000008F300840A0008F400A7
:1006F800F309F409F30A0319F40A71087307F500FA
:1007080072080318720A7407F6005808043E840039
:1007180075088000840A760880001708F0390538C3
:100728009700962B08000B1D9A2B9B2BA62B8B1E34
:100738009E2B9F2BA62B0B110A128A11FA240A1240
:100748008A11A62B831203138C1CAB2BAC2BBB2B4F
:10075800831603138C1CB12BB22BBB2B83120313F0
:100768008C100A128A111D250A128A11BB2B8312BA
:1007780003130C1DC02BC12BE22B831603130C1D76
:10078800C62BC72BE22B831203130C110310051C75
:1007980003140318D02BD42B831203130514D72B5F
:1007A8008312031305101508FA007A08F0001608DA
:1007B8000A128A1138230A128A11E22B7D088A004C
:1007C8007C0884007B0E8300FE0E7E0E09006430D8
:1007D80083120313A0000030A1000A128A11A32477
:1007E8000A128A1183160313081188110812881235
:1007F80008138813643083120313A0000030A1008B
:100808000A128A11A3240A128A1183120313881563
:1008180028300A128A11CA210A128A110C300A12C7
:100828008A11CA210A128A1101300A128A11CA21B0
:100838000A128A1102300A128A11CA210A128A116E
:10084800643083120313A0000030A1000A128A1139
:10085800A3240A128A11080083120313A2000815A0
:100868002208A00004300310A00CFF3E031D372C03
:100878002008A10004300310A10DFF3E031D3F2CEA
:1008880008080F392104880088110C3083120313DB
:10089800A000A00B4D2C0000831203138815081527
:1008A8002208A00004300310A00DFF3E031D572CA2
:1008B80008080F392004880088110C3083120313AC
:1008C800A000A00B652C00008312031388150800F4
:1008D800FF34FF34FF34FF34FF34FF34FF34FF3478
:1008E800FF34FF34FF34FF34FF34FF34FF34FF3468
:1008F800FF34FF34FF34FF34FF34FF34FF34FF3458
:10090800FF34FF34FF34FF34FF34FF34FF34FF3447
:10091800FF34FF34FF34FF34FF34FF34FF34FF3437
:10092800FF34FF34FF34FF34FF34FF34FF34FF3427
:10093800FF34FF34FF34FF34FF34FF34FF34B52C69
:10094800C73083120313A200A92CA20BA82CAC2C2D
:10095800013083120313A0020030031CA103A1027B
:10096800B52C8312031320082104031DBC2CBD2CB5
:10097800A42CBE2C080083120313A5002508A4008C
:1009880006300310A40DFF3E031DC52C23082407C1
:100998007F39803E0A128A11CA210A128A11080078
:1009A8007E088A007F0882000A128A11D4240A125B
:1009B8008A118000840A04087D0603190034FF0A9E
:1009C8000319FE0AD82C8B138312031390101013EB
:1009D800CF30900510141708F039053897008316A2
:1009E800031307150C150B178B1708000630831215
:1009F80003138100540855040319032D042D0B2DEE
:100A08000130D4020030031CD503D5020B2D080099
:100A18005F345F345F345F345F345F345F345F3436
:100A28005F345F345F345F345F345F345F345F3426
:100A3800003483120313500851040319242D252D63
:100A48002C2D0130D0020030031CD103D1022C2DF3
:100A58000800831203135808043E84008313000817
:100A6800A000840A0008A100392D0800831203138E
:100A78005808023E840083130008422D08008312A0
:100A8800031358088400831300084A2D08008316AE
:0A0A9800031308148810071108006A
:04400E00D4E0FFFFFC
:00000001FF
