:020000040000FA
:060000000A128A110C280F
:10000800FE00030EF0000A08F1000A128A113A2CC9
:100018000A128A110F28FA01FB0183120313B70190
:10002800B801B901BA01BB01BC01BD01BE01830120
:100038000A128A110D2983120313AB00A61B252867
:100048002728013028280030A8002808AD002D08EE
:1000580003192F2830283628A509A609A50A031947
:10006800A60A36282408A8002808F5002B080A1232
:100078008A11B3240A128A11103083120313AE00B6
:100088002730AF000530A8002808AC007A28831272
:1000980003132F08F3002E08F2002608F5002508A0
:1000A800F4000A128A1177220A128A11720873045C
:1000B800031D5F2860289428013083120313AC02C3
:1000C800662894280A30F2000030F3002F08F50063
:1000D8002E08F4000A128A1177220A128A1173086C
:1000E80083120313AF007208AE007A282F08803AF3
:1000F800FF0080307F02031D832801302E02031881
:10010800862887284B289428942820300A128A1198
:1001180004240A128A11013083120313A7029428B7
:10012800831203132C082D07A800A901A90D29087B
:10013800803AAA0080302A02031DA4282708280232
:100148000318A728A828B22802308312031327020D
:100158000318AF28B0288928B228B22883120313BD
:100168002D080319B828B928C0282D300A128A1179
:1001780004240A128A11C028831203132F08F300DB
:100188002E08F2002608F5002508F4000A128A1144
:1001980077220A128A117208303E0A128A11042440
:1001A8000A128A11831203132F08F3002E08F20093
:1001B8002608F5002508F4000A128A11EA220A1214
:1001C8008A11730883120313A6007208A5000A3067
:1001D800F2000030F3002F08F5002E08F4000A1290
:1001E8008A1177220A128A11730883120313AF0047
:1001F8007208AE002F08803AFF0080307F02031D8E
:10020800072901302E0203180A290B29C0280C29B6
:10021800080083120313B301B401B501B601B1019B
:10022800B2018316031307100A128A118E230A12C9
:100238008A110A128A1108250A128A110A128A11C9
:10024800E8240A128A11E830F2000330F3000A1297
:100258008A1113250A128A1183120313A401340880
:10026800A6003308A5000230B0003008A70001300E
:100278000A128A111F200A128A11F801F80A163088
:1002880083120313B0003008F90000300A128A11F3
:10029800CD230A128A1150290A128A11D8240A1267
:1002A8008A11003A031959295A296F29F801F80ABD
:1002B8000C3083120313B0003008F90000300A1222
:1002C8008A11CD230A128A11013083120313B50053
:1002D8000030B60050298312031335083604031D75
:1002E800762977298429F801F80A0130B000300806
:1002F800F90000300A128A11CD230A128A115029F6
:10030800E830F2000330F3000A128A1113250A12AA
:100318008A113C30F2000030F300013083120313DD
:10032800B5070318B60A0030B6073608F5003508D1
:10033800F4000A128A114D230A128A1173088312D3
:100348000313B6007208B500F801F80A0C30B000C3
:100358003008F90000300A128A11CD230A128A11D6
:1003680083120313A4013508FF3EA50036080318BD
:10037800013EFF3EA6000230B0003008A700013061
:100388000A128A111F200A128A11CB29CB290A12B4
:100398008A111D250A128A1172087304031DD529B2
:1003A800D629CB29D729003083120313360204300B
:1003B80003193502031CE129E2295029B501B601C8
:1003C800502950295029502950290A128A110C28DD
:1003D800F4008312031308117408F20004300310A8
:1003E800F20CFF3E031DF3297208F30004300310DA
:1003F800F30DFF3E031DFB2908080F39730488001D
:10040800881174030319092A0A2A112A023074066A
:10041800031D0F2A102A1B2A112A0330F3009730D4
:10042800F200F20B152AF30B152A1A2A202A0D308E
:10043800F200F20B1D2A202A831203138815F030CC
:100448007405F20020307206031D2B2A2C2A4A2A32
:1004580008117408F20004300310F20CFF3E031D6B
:10046800302A7208F30004300310F30DFF3E031D19
:10047800382A08080F397304880088110D30F200F3
:10048800F20B442A8312031388154A2A08117408A8
:10049800F20004300310F20DFF3E031D4E2A080837
:1004A8000F39720488008811740303195C2A5D2AC5
:1004B800642A02307406031D622A632A6E2A642A9B
:1004C8000330F3009730F200F20B682AF30B682A26
:1004D8006D2A732A0D30F200F20B702A732A8312E8
:1004E80003138815080083120313A101F31F7D2A43
:1004F8007E2A862AF209F309F20A0319F30AA101EE
:10050800A10A862AF51F892A8A2A942AF409F50954
:10051800F40A0319F50A0130F6007608A106942AB0
:10052800A201A3017208730403199B2A9C2AD92AE1
:10053800A001A00AAB2A01300310F20DF30DFF3E13
:10054800031DA02A0130F6007608A007AB2AF31F86
:10055800AE2AAF2A9F2AB12AB12A01300310A20D70
:10056800A30DFF3E031DB22A73087502031DBE2AA0
:1005780072087402031CC12AC22ACA2A7208F40229
:100588007308031CF503F5022214CA2A013003106C
:10059800F30CF20CFF3E031DCB2A0130A002031D11
:1005A800D62AD72AB12AD92AD92A21080319DD2A15
:1005B800DE2AE42AA209A309A20A0319A30AE42A43
:1005C8002308F3002208F200E92A0800F801F51FC1
:1005D800EE2AEF2AF72AF409F509F40A0319F50AAD
:1005E800F801F80AF72AF31FFA2AFB2A012BF20965
:1005F800F309F20A0319F30A012B720873040319A9
:10060800062B072B3C2BF701F70A162B013003109A
:10061800F20DF30DFF3E031D0B2B0130F60076089B
:10062800F707162BF31F192B1A2B0A2B1C2B1C2B25
:1006380073087502031D222B72087402031C252BF4
:10064800262B2D2B7208F4027308031CF503F50200
:100658002D2B01300310F30CF20CFF3E031D2E2B43
:100668000130F702031D392B3A2B1C2B3C2B3C2B5A
:1006780078080319402B412B472BF409F509F40A94
:100688000319F50A472B7508F3007408F2004C2B80
:100698000800720873040319522B532B882BF70197
:1006A800F70A622B01300310F20DF30DFF3E031D14
:1006B800572B0130F6007608F707622BF31F652BDE
:1006C800662B562B682B682B73087502031D6E2B3F
:1006D80072087402031C712B722B792B7208F402B6
:1006E8007308031CF503F502792B01300310F30C92
:1006F800F20CFF3E031D7A2B0130F702031D852BF8
:10070800862B682B882B882B7508F3007408F20059
:100718008D2B08006430F2000030F3000A128A11B1
:1007280088240A128A1183160313081188110812E3
:100738008812081388136430F2000030F3000A129C
:100748008A1188240A128A11831203138815283003
:100758000A128A11EC210A128A110C300A128A1123
:10076800EC210A128A1101300A128A11EC210A12AC
:100778008A1102300A128A11EC210A128A11643095
:10078800F2000030F3000A128A1188240A128A1132
:10079800080083120313A2007808A0002008A10013
:1007A8007808A0002008F50022080A128A11B3244C
:1007B8000A128A11F62B790884000A128A11662413
:1007C8000A128A110A128A1104240A128A110130A3
:1007D80083120313A0002008F9070130A0002008A5
:1007E800A107F62B790884000A128A1166240A12D6
:1007F8008A11003A031D012C022CDF2B032C080060
:10080800F4008312031308157408F200043003106F
:10081800F20CFF3E031D0B2C7208F300043003108A
:10082800F30DFF3E031D132C08080F3973048800CD
:1008380088110D30F200F20B1F2C83120313881558
:1008480008157408F20004300310F20DFF3E031D72
:10085800282C08080F397204880088110D30F2001E
:10086800F20B342C83120313881508000B1D3D2C42
:100878003E2C452C0B110A128A11C6240A128A1121
:10088800452C831203130C1C4A2C4B2C522C0C1095
:100898000A128A119F240A128A11522C83120313F6
:1008A8008C1C572C582C5F2C8C100A128A11F82497
:1008B8000A128A115F2C71088A00700E8300FE0EDE
:1008C8007E0E090004308A000408840A8207003476
:1008D8004C3449345634523445342034203420348E
:1008E80020342034003442344C344F34513455349D
:1008F8004534413444344F340034503472346F3406
:100908006E3474346F340034972CC730F4008C2C58
:10091800F40B8B2C8F2C902C0130F2020030031C2E
:10092800F303F302972C72087304031D9C2C9D2C6F
:10093800892C9E2C0800FC30831203138F0018307A
:100948008E0039083A040319AA2CAB2CB22C0130BA
:10095800B9020030031CBA03BA02B22C0800F7002F
:100968007708F60006300310F60DFF3E031DB72C7E
:10097800750876077F39803E0A128A11EC210A121F
:100988008A11080006308312031381007A087B0459
:100998000319CF2CD02CD72C0130FA020030031CBD
:1009A800FB03FB02D72C080083120313070CF20089
:1009B800720C0139F30007087306FE3973068700C5
:1009C80007080139E72C08008B13831603138111DC
:1009D8000108F839013881008112063083120313A7
:1009E80081008B128B170800831203133708380411
:1009F8000319FF2C002D072D0130B7020030031C0E
:100A0800B803B802072D080083160313071507104B
:100A180083120313BB01BC0107100711080006303D
:100A28008312031381007308FB007208FA008B1607
:0E0A380008007B08F3007A08F200222D080067
:04400E00D4E0FFFFFC
:00000001FF
