:020000040000FA
:100000000A128A11F22F00308A000408840A82073B
:0E001000003461347634693473346F34003454
:100C2A00831603130715071083120313A001A101EA
:100C3A00071007110800F5007508F40006300310C4
:100C4A00F40DFF3E031D242E730874077F39803E7E
:100C5A000A128A1167270A128A110800422EC7301F
:100C6A00F200372EF20B362E3A2E3B2E0130F002CE
:100C7A000030031CF103F102422E70087104031DB7
:100C8A00472E482E342E492E080083120313A4013E
:100C9A00A501FC010A128A11E4260A128A110A1213
:100CAA008A1115260A128A115A2E7D08FB007B0822
:100CBA00F0007C080A128A1123270A128A117C037F
:100CCA00031D682E692E5A2EF601F60A0130FB0022
:100CDA007B08F70000300A128A117B260A128A1151
:100CEA005A2E5A2E5A2E0A128A110028FA0076080B
:100CFA00F8007808F9007608F8007808F3007A080E
:100D0A000A128A1120260A128A11A02E7708840054
:100D1A000A128A1103200A128A110A128A11AE26AD
:100D2A000A128A110130F8007808F7070130F80032
:100D3A007808F907A02E770884000A128A1103207E
:100D4A000A128A11003A031DAB2EAC2E8B2EAD2E41
:100D5A000800F2008312031308157208F000043029
:100D6A000310F00CFF3E031DB52E7008F10004308D
:100D7A000310F10DFF3E031DBD2E08080F39710443
:100D8A00880088110D30F000F00BC92E831203136E
:100D9A00881508157208F00004300310F00DFF3EA4
:100DAA00031DD22E08080F397004880088110D30EF
:100DBA00F000F00BDE2E831203138815080064304E
:100DCA00F0000030F1000A128A1133260A128A1141
:100DDA00831603130811881108128812081388133E
:100DEA006430F0000030F1000A128A1133260A1228
:100DFA008A1183120313881528300A128A11672769
:100E0A000A128A110C300A128A1167270A128A11E9
:100E1A0001300A128A1167270A128A1102300A124D
:100E2A008A1167270A128A116430F0000030F10033
:100E3A000A128A1133260A128A110800F200720C69
:100E4A0083120313031C0711031807157203031DEA
:100E5A002F2F302F3B2F9430A0001130A100071400
:100E6A00700C031C0710031807143B2F7208031D8C
:100E7A003F2F402F662FFF30A0070318A10AFF302B
:100E8A00A107C730F100492FF10B482F4C2F4D2FE6
:100E9A00831203132108803AFF0080307F02031D6A
:100EAA00582F0130200203185B2F5C2F662F831204
:100EBA0003130710700C031C071003180714662F7E
:100ECA00662F0800F2008312031308117208F0005B
:100EDA0004300310F00CFF3E031D6E2F7008F10062
:100EEA0004300310F10DFF3E031D762F08080F3959
:100EFA0071048800881172030319842F852F8C2F9F
:100F0A0002307206031D8A2F8B2F962F8C2F0330E7
:100F1A00F1009730F000F00B902FF10B902F952FE6
:100F2A009B2F0D30F000F00B982F9B2F8312031389
:100F3A008815F0307205F00020307006031DA62FC8
:100F4A00A72FC52F08117208F00004300310F00C07
:100F5A00FF3E031DAB2F7008F10004300310F10DA2
:100F6A00FF3E031DB32F08080F397104880088114A
:100F7A000D30F000F00BBF2F831203138815C52F15
:100F8A0008117208F00004300310F00DFF3E031D33
:100F9A00C92F08080F3970048800881172030319D1
:100FAA00D72FD82FDF2F02307206031DDD2FDE2F39
:100FBA00E92FDF2F0330F1009730F000F00BE32F19
:100FCA00F10BE32FE82FEE2F0D30F000F00BEB2F93
:100FDA00EE2F8312031388150800FC01FD0183120A
:100FEA000313A001A101A201A301A401A501830188
:060FFA000A128A114A2EC2
:04400E00D4E0FFFFFC
:00000001FF
