:020000040000FA
:060000000A128A110E280D
:10000800FE00030EFB000408FC000A08FD000A12AB
:100018008A11322B0A128A1111288313D730FD0056
:100028000430FE005530FF00A03084000A128A1107
:100038000C250A128A116330FD000530FE002D30B0
:10004800FF00523084000A128A110C250A128A1104
:100058003F30840052300A128A1154250A128A113C
:1000680083010A128A11282983120313B000AB1BDB
:100078003E284028013041280030AD002D08B2004C
:1000880032080319482849284F28AA09AB09AA0A9F
:100098000319AB0A4F282908AD002D08A300300822
:1000A8000A128A11F3240A128A11103083120313D8
:1000B800B3002730B4000530AD002D08B1009328F7
:1000C800831203133408A1003308A0002B08A300EF
:1000D8002A08A2000A128A115A220A128A118312C5
:1000E800031320082104031D7A287B28AD2801303A
:1000F800B1027F28AD280A30A0000030A1003408E2
:10010800A3003308A2000A128A115A220A128A117D
:10011800831203132108B4002008B300932834087D
:10012800803AFF0080307F02031D9C280130330293
:1001380003189F28A0286428AD28AD2820300A126B
:100148008A1119240A128A11013083120313AC028E
:10015800AD288312031331083207AD00AE01AE0D8E
:100168002E08803AAF0080302F02031DBD282C08CE
:100178002D020318C028C128CB280230831203138C
:100188002C020318C828C928A228CB28CB288312F8
:10019800031332080319D128D228D9282D300A127E
:1001A8008A1119240A128A11D928831203133408D0
:1001B800A1003308A0002B08A3002A08A2000A12F5
:1001C8008A115A220A128A11831203132008303E18
:1001D8000A128A1119240A128A1183120313340885
:1001E800A1003308A0002B08A3002A08A2000A12C5
:1001F8008A11CD220A128A11831203132108AB0037
:100208002008AA000A30A0000030A1003408A3008A
:100218003308A2000A128A115A220A128A1183127A
:1002280003132108B4002008B3003408803AFF0003
:1002380080307F02031D222901303302031825294B
:100248002629D928272908008316031307100A121C
:100258008A1164250A128A110A128A11D4230A12F1
:100268008A110A128A11D6240A128A1183160317D0
:10027800880183160313051041290A128A115C2587
:100288000A128A1183120313B500B6013508B900A2
:100298003608BA000A128A114B250A128A118312EB
:1002A8000313B500B6013508BB003608BC000A12B6
:1002B8008A113E250A128A11831203132108BE00EF
:1002C8002008BD00A9013A08AB003908AA0003308C
:1002D800B5003508AC0001300A128A1138200A121C
:1002E8008A11053083120313B5003508A9003C08AC
:1002F800AB003B08AA000330B6003608AC0001305A
:100308000A128A1138200A128A110A30831203133A
:10031800B5003508A9003E08AB003D08AA00033027
:10032800B6003608AC0001300A128A1138200A12C9
:100338008A110D3083120313B5003508A9000F0880
:10034800B600B7013608AA003708AB000330B8007A
:100358003808AC0000300A128A1138200A128A11B3
:10036800E83083120313A0000330A1000A128A1197
:10037800B7240A128A11412941290A128A110E2822
:1003880083120313A20008112208A00004300310EE
:10039800A00CFF3E031DCB292008A1000430031048
:1003A800A10DFF3E031DD32908080F392104880039
:1003B800881122030319E129E229E92902302206DA
:1003C800031DE729E829F429E9290D3083120313CD
:1003D800A100FB30A000A00BEF29A10BEF29FC29FD
:1003E800413083120313A000A00BF829FB29FC2934
:1003F800831203138815F0302205A0002030200650
:10040800031D072A082A292A08112208A0000430F7
:100418000310A00CFF3E031D0C2A2008A100043085
:100428000310A10DFF3E031D142A08080F392104EB
:1004380088008811413083120313A000A00B222AE0
:10044800252A831203138815292A08112208A000D7
:1004580004300310A00DFF3E031D2D2A08080F3994
:10046800200488008811220303193B2A3C2A432AC6
:1004780002302206031D412A422A4E2A432A0D3001
:1004880083120313A100FB30A000A00B492AA10B83
:10049800492A562A413083120313A000A00B522A7E
:1004A800552A562A8312031388150800831203134A
:1004B800A601A11F602A612A692AA009A109A00A28
:1004C8000319A10AA601A60A692AA31F6C2A6D2A84
:1004D800772AA209A309A20A0319A30A0130A400D2
:1004E8002408A606772AA701A801200821040319D1
:1004F8007E2A7F2ABC2AA501A50A8E2A013003106C
:10050800A00DA10DFF3E031D832A0130A40024087D
:10051800A5078E2AA11F912A922A822A942A942A10
:1005280001300310A70DA80DFF3E031D952A2108D1
:100538002302031DA12A20082202031CA42AA52A9B
:10054800AD2A2008A2022108031CA303A302271432
:10055800AD2A01300310A10CA00CFF3E031DAE2AEA
:100568000130A502031DB92ABA2A942ABC2ABC2A3A
:1005780026080319C02AC12AC72AA709A809A70A51
:100588000319A80AC72A2808A1002708A000CC2A0E
:10059800080083120313A601A31FD32AD42ADC2A36
:1005A800A209A309A20A0319A30AA601A60ADC2A1A
:1005B800A11FDF2AE02AE62AA009A109A00A031937
:1005C800A10AE62A200821040319EB2AEC2A212B88
:1005D800A501A50AFB2A01300310A00DA10DFF3EBD
:1005E800031DF02A0130A4002408A507FB2AA11F37
:1005F800FE2AFF2AEF2A012B012B21082302031DC3
:10060800072B20082202031C0A2B0B2B122B200875
:10061800A2022108031CA303A302122B013003101A
:10062800A10CA00CFF3E031D132B0130A502031DD6
:100638001E2B1F2B012B212B212B26080319252BC1
:10064800262B2C2BA209A309A20A0319A30A2C2BD7
:100658002308A1002208A000312B08000B1D352B10
:10066800362B412B8B1E392B3A2B412B0B110A129F
:100678008A111B250A128A11412B831203130C1DA0
:10068800462B472B7B2B831603130C1D4C2B4D2B12
:100698007B2B0C11831203130C110310051C03147C
:1006A8000318572B5B2B8312031305145E2B83123D
:1006B800031305101B08FA007A08F0001C080A1238
:1006C8008A118C240A128A11831203131B08FA0058
:1006D8007A08F0001C080A128A1184230A128A1167
:1006E800831203131014831603130C157B2B7D0838
:1006F8008A007C0884007B0E8300FE0E7E0E0900B3
:10070800F700F801F9017708F100F2017108F80023
:100718007208F90008300310F80DF90DFF3E031DAB
:100728008F2B7008F100F2017108F8007208F900C7
:10073800831203131D080F39003A0319A42BA52BA4
:10074800D32B4D08023E8400780883138000840A66
:10075800790880004D08023E84000008F100840AF0
:100768000008F2004D0884000008F300840A00081D
:10077800F400F309F409F30A0319F40A710873077A
:10078800F50072080318720A7407F6004D08043E53
:10079800840075088000840A76088000D32B08003E
:1007A800643083120313A0000030A1000A128A11DA
:1007B800B7240A128A118316031308118811081224
:1007C800881208138813643083120313A0000030C2
:1007D800A1000A128A11B7240A128A11831203137C
:1007E800881528300A128A11C4210A128A110C307D
:1007F8000A128A11C4210A128A1101300A128A11B6
:10080800C4210A128A1102300A128A11C4210A125A
:100818008A11643083120313A0000030A1000A1269
:100828008A11B7240A128A11080083120313A2003E
:1008380008152208A00004300310A00CFF3E031D79
:10084800202C2008A10004300310A10DFF3E031D39
:10085800282C08080F392104880088114130831298
:100868000313A000A00B362C392C83120313881510
:1008780008152208A00004300310A00DFF3E031D38
:10088800402C08080F392004880088114130831251
:100898000313A000A00B4E2C512C831203138815B0
:1008A8000800FF34FF34FF34FF34FF34FF34FF34D3
:1008B800FF34FF34FF34FF34FF34FF34FF34FF3498
:1008C800FF34FF34FF34FF34FF34FF34FF34FF3488
:1008D800FF34FF34FF34FF34FF34FF34FF34FF3478
:1008E800FF34FF34FF34FF34FF34FF34FF34FF3468
:1008F800FF34FF34FF34FF34FF34FF34FF34FF3458
:10090800FF34FF34FF34FF34FF34FF34FF34FF3447
:10091800F300F401F5017308F100F2017108F40025
:100928007208F50008300310F40DF50DFF3E031DA5
:10093800972C7008F100F2017108F4007208F500B4
:100948008312031317080F39003A0319AC2CAD2C86
:10095800B62C4D088400740883138000840A750837
:100968008000B62C0800CC2C073083120313A30098
:100978007C30A200A20BBE2CA30BBE2C00000130C1
:1009880083120313A0020030031CA103A102CC2C84
:100998008312031320082104031DD32CD42CB82C54
:1009A800D52C08008B138312031390101013CF302B
:1009B800900510141708F0390538970083160313AB
:1009C80007150C15831203131D08F03904389D0010
:1009D8008316031307150D140B178B1708008312C2
:1009E8000313A5002508A40006300310A40DFF3E3C
:1009F800031DF92C230824077F39803E0A128A1127
:100A0800C4210A128A1108007E088A007F08820021
:100A18000A128A1108250A128A118000840A040819
:100A28007D0603190034FF0A0319FE0A0C2D06304F
:100A380083120313810049084A040319242D252D24
:100A48002C2D0130C9020030031CCA03CA022C2D08
:100A580008005F345F345F345F345F345F345F3481
:100A68005F345F345F345F345F345F345F345F34E6
:100A78005F340034831203134D08043E840083134B
:100A88000008A000840A0008A1004A2D080083126B
:100A980003134D08023E840083130008532D0800F9
:100AA80064008001840A0406031900340406552DE5
:100AB800831203134D08840083130008632D080074
:0A0AC80083160313081488100800B9
:04400E00D2E0FFFFFE
:00000001FF
