:020000040000FA
:060000000A128A110E280D
:10000800FE00030EF7000408F8000A08F9000A12B7
:100018008A11A12A0A128A1111288313D730FD00E8
:100028000330FE00F930FF00A03084000A128A1164
:1000380068240A128A114A30FD000430FE009C3000
:10004800FF00393084000A128A1168240A128A11C2
:10005800CA01CB01CC01CD01CE01CF01D001D10124
:10006800D201D301D401D501D601D701D801FA01B3
:10007800FB01FC01FD0183010A128A11402B831246
:100088000313B000AB1B49284B2801304C28003023
:10009800AD002D08B20032080319532854285A28F5
:1000A800AA09AB09AA0A0319AB0A5A282908AD00FC
:1000B8002D08A30030080A128A114F240A128A1147
:1000C800103083120313B3002730B4000530AD009D
:1000D8002D08B1009E28831203133408A1003308A9
:1000E800A0002B08A3002A08A2000A128A11C9211D
:1000F8000A128A118312031320082104031D85287C
:100108008628B8280130B1028A28B8280A30A00009
:100118000030A1003408A3003308A2000A128A1193
:10012800C9210A128A11831203132108B400200876
:10013800B3009E283408803AFF0080307F02031DF8
:10014800A728013033020318AA28AB286F28B8283B
:10015800B82820300A128A11BD230A128A110130E8
:1001680083120313AC02B828831203133108320731
:10017800AD00AE01AE0D2E08803AAF0080302F02E0
:10018800031DC8282C082D020318CB28CC28D628F4
:100198000230831203132C020318D328D428AD2865
:1001A800D628D6288312031332080319DC28DD2841
:1001B800E4282D300A128A11BD230A128A11E42874
:1001C800831203133408A1003308A0002B08A300EE
:1001D8002A08A2000A128A11C9210A128A11831256
:1001E80003132008303E0A128A11BD230A128A110D
:1001F800831203133408A1003308A0002B08A300BE
:100208002A08A2000A128A113C220A128A118312B1
:1002180003132108AB002008AA000A30A000003010
:10022800A1003408A3003308A2000A128A11C921C8
:100238000A128A11831203132108B4002008B3009C
:100248003408803AFF0080307F02031D2D290130D9
:100258003302031830293129E4283229080083128F
:100268000313A20008112208A00004300310A00CF8
:10027800FF3E031D3A292008A10004300310A10DF8
:10028800FF3E031D422908080F3921048800881100
:100298002203031950295129582902302206031D27
:1002A80056295729632958290D3083120313A100B1
:1002B800FB30A000A00B5E29A10B5E296B29413001
:1002C80083120313A000A00B67296A296B298312E4
:1002D80003138815F0302205A00020302006031DE6
:1002E80076297729982908112208A00004300310DC
:1002F800A00CFF3E031D7B292008A1000430031039
:10030800A10DFF3E031D832908080F392104880029
:100318008811413083120313A000A00B912994295E
:10032800831203138815982908112208A0000430A5
:100338000310A00DFF3E031D9C2908080F39200457
:100348008800881122030319AA29AB29B22902308F
:100358002206031DB029B129BD29B2290D30831207
:100368000313A100FB30A000A00BB829A10BB829EA
:10037800C529413083120313A000A00BC129C42949
:10038800C529831203138815080083120313A601D5
:10039800A11FCF29D029D829A009A109A00A03198A
:1003A800A10AA601A60AD829A31FDB29DC29E62968
:1003B800A209A309A20A0319A30A0130A400240868
:1003C800A606E629A701A801200821040319ED299A
:1003D800EE292B2AA501A50AFD2901300310A00D3D
:1003E800A10DFF3E031DF2290130A4002408A50732
:1003F800FD29A11F002A012AF129032A032A013015
:100408000310A70DA80DFF3E031D042A210823028F
:10041800031D102A20082202031C132A142A1C2A4E
:100428002008A2022108031CA303A30227141C2AE4
:1004380001300310A10CA00CFF3E031D1D2A013042
:10044800A502031D282A292A032A2B2A2B2A260833
:1004580003192F2A302A362AA709A809A70A031937
:10046800A80A362A2808A1002708A0003B2A080065
:1004780083120313A601A31F422A432A4B2AA20967
:10048800A309A20A0319A30AA601A60A4B2AA11FB7
:100498004E2A4F2A552AA009A109A00A0319A10A20
:1004A800552A2008210403195A2A5B2A902AA501F3
:1004B800A50A6A2A01300310A00DA10DFF3E031DF5
:1004C8005F2A0130A4002408A5076A2AA11F6D2A03
:1004D8006E2A5E2A702A702A21082302031D762AB2
:1004E80020082202031C792A7A2A812A2008A202DB
:1004F8002108031CA303A302812A01300310A10CC5
:10050800A00CFF3E031D822A0130A502031D8D2A7F
:100518008E2A702A902A902A26080319942A952A46
:100528009B2AA209A309A20A0319A30A9B2A230842
:10053800A1002208A000A02A08000B1DA42AA52AB1
:10054800B02A8B1EA82AA92AB02A0B110A128A11CE
:100558008A240A128A11B02A831203138C1CB52A22
:10056800B62AC52A831603138C1CBB2ABC2AC52AA3
:10057800831203138C100A128A11AD240A128A11ED
:10058800C52A831203130C1DCA2ACB2AF22A831602
:1005980003130C1DD02AD12AF22A831203130C113B
:1005A8000310051C03140318DA2ADE2A8312031326
:1005B8000514E12A8312031305101508F6007608BE
:1005C800F00016080A128A1180230A128A1183126F
:1005D80003131014831603130C15F22A79088A00E2
:1005E80078088400770E8300FE0E7E0E09006430C2
:1005F80083120313A0000030A1000A128A113024CC
:100608000A128A1183160313081188110812881216
:1006180008138813643083120313A0000030A1006C
:100628000A128A1130240A128A11831203138815B8
:1006380028300A128A1133210A128A110C300A1240
:100648008A1133210A128A1101300A128A113321C0
:100658000A128A1102300A128A1133210A128A11E7
:10066800643083120313A0000030A1000A128A111B
:1006780030240A128A1108008316031307100A127D
:100688008A11BD240A128A110A128A11FB220A123F
:100698008A110A128A1177240A128A1183160317FB
:1006A8008801831603130510592B0D308312031389
:1006B800B5003508A9000F08B600B7013608AA002A
:1006C8003708AB000330B8003808AC0000300A1215
:1006D8008A1143200A128A11E83083120313A000FA
:1006E8000330A1000A128A1130240A128A11592BE8
:1006F800592B0A128A110E28F300F401F501730828
:10070800F100F2017108F4007208F50008300310D6
:10071800F40DF50DFF3E031D8B2B7008F100F2015F
:100728007108F4007208F5008312031317080F39D3
:10073800053A031DA02BA12BAE2B7A088400740860
:1007480083138000840A750880001708F03904387C
:100758009700BC2B7A08023E84007408831380003B
:10076800840A750880001708F03905389700BC2BF3
:10077800080083120313A20008152208A000043001
:100788000310A00CFF3E031DC42B2008A100043059
:100798000310A10DFF3E031DCC2B08080F392104BF
:1007A80088008811413083120313A000A00BDA2BB4
:1007B800DD2B83120313881508152208A0000430C6
:1007C8000310A00DFF3E031DE42B08080F39200479
:1007D80088008811413083120313A000A00BF22B6C
:1007E800F52B8312031388150800FF34FF34FF34F8
:1007F800FF34FF34FF34FF34FF34FF34FF34FF3459
:10080800FF34FF34FF34FF34FF34FF34FF34FF3448
:10081800FF34FF34FF34FF34FF34FF34FF34FF3438
:10082800FF34FF34FF34FF34FF34FF34FF34FF3428
:10083800FF34FF34FF34FF34FF34FF34FF34FF3418
:10084800FF34FF34FF34FF34FF34FF34FF34FF3408
:10085800FF34FF34FF34FF34452C07308312031371
:10086800A3007C30A200A20B372CA30B372C00006E
:10087800013083120313A0020030031CA103A1025C
:10088800452C8312031320082104031D4C2C4D2CE6
:10089800312C4E2C080083120313A5002508A40050
:1008A80006300310A40DFF3E031D552C2308240712
:1008B8007F39803E0A128A1133210A128A110800F0
:1008C8007E088A007F0882000A128A1164240A12AC
:1008D8008A118000840A04087D0603190034FF0A7F
:1008E8000319FE0A682C8B1383120313901010133C
:1008F800CF30900510141708F03905389700831683
:10090800031307150C150B178B17080006308312F5
:1009180003138100540855040319932C942C9B2C21
:100928000130D4020030031CD503D5029B2C0800EB
:100938005F345F345F345F345F345F345F345F3417
:100948005F345F345F345F345F345F345F345F3407
:10095800003483120313500851040319B42CB52C26
:10096800BC2C0130D0020030031CD103D102BC2CB6
:0C09780008008316031308148810080000
:04400E00D2E0FFFFFE
:00000001FF
